:10000000A2C0BCC0BBC0BAC0B9C0B8C0B7C0B6C03F
:10001000B5C0B4C07DC3B2C0B1C0B0C075C200002D
:1000200000000000005F00000007000700147F14BC
:100030007F14242A7F2A122313086462364955222A
:10004000500005030000001C2241000041221C005A
:1000500014083E081408083E080800503000000844
:1000600008080808006060000020100804023E51E3
:1000700049453E00427F4000426151494621414589
:100080004B311814127F1027454545393C4A4949E0
:100090003001710905033649494936064949291E87
:1000A00000363600000056360000081422410014C5
:1000B0001414141400412214080201510906324993
:1000C00079413E7E1111117E7F494949363E4141B9
:1000D00041227F4141221C7F494949417F09090949
:1000E000013E4149497A7F0808087F00417F41006D
:1000F0002040413F017F081422417F404040407F23
:10010000020C027F7F0408107F3E4141413E7F097F
:100110000909063E4151215E7F0919294646494990
:10012000493101017F01013F4040403F1F204020F5
:100130001F3F4038403F63140814630708700807E6
:1001400061514945430011241FBECFE5D2E0DEBF17
:10015000CDBF10E0A0E6B0E0E6E5F9E002C0059012
:100160000D92A836B107D9F720E0A8E6B0E001C0AB
:100170001D92A438B207E1F7E2D2EBC341CF87B3B7
:10018000886087BB88B3886088BB87B3806187BB82
:1001900088B38F7E88BB089585B3877F85BB8BB777
:1001A0008F7D8BBF089584E080BF1FBC089510BE73
:1001B0001FBC08958EE080BF88B3877F88BB1FBCBB
:1001C0008FB58231E8F387B3877F87BB88B3877F9A
:1001D00088BB84E080BF1FBC0895B399FECF1FBCCD
:1001E000B39BFECF8FB58B34D8F08FB58B35C0F471
:1001F0001FBC80916B008F5F80936B00B399FECF23
:100200008FB58B3448F08FB58B3530F480916B000F
:100210008F5F80936B00089582E080936A00089559
:1002200082E080936A0008950F931F935EC08091CF
:100230006000815080936000B39BFECF1FBCB399D8
:10024000FECF80916000883060F18FB58D3208F468
:100250004CC08091600090E0089741E050E060E081
:1002600070E08A019B0104C0000F111F221F331F81
:100270008A95D2F7D901C801409170005091710060
:100280006091720070917300842B952BA62BB72B75
:100290008093700090937100A0937200B0937300EC
:1002A00024C08FB58D3208F12091600081E090E08C
:1002B00002C0880F991F2A95E2F740916C00509177
:1002C0006D0060916E0070916F00092E000CAA0BFA
:1002D000BB0B842B952BA62BB72B80936C00909394
:1002E0006D00A0936E00B0936F008091600081114B
:1002F0009ECF1F910F91089580916900823099F1EE
:1003000028F4882359F0813009F10895843009F4E4
:1003100049C0D8F1853009F4A1C008951092750044
:100320001092740010927700109276001092700074
:100330001092710010927200109273001092680077
:100340001EDF31DF81E080936900089533DF809103
:100350006A00882321F085E080936900089582E097
:1003600080936900089539DF80916A00882321F025
:1003700085E080936900089580916B00823009F0D8
:100380006FC083E08093690008954EDF80916A001A
:10039000882321F085E080936900089584E08093AC
:1003A000690008958091700090917100A091720091
:1003B000B0917300809376008091700090917100ED
:1003C000A0917200B0917300892F9A2FAB2FBB2799
:1003D000809377008091700090917100A0917200DD
:1003E000B0917300CD01AA27BB2780937400809140
:1003F000700090917100A0917200B09173008B2FEA
:100400009927AA27BB2780937500209176008091B9
:10041000770090E0820F911D20917400820F911D52
:1004200020917500820F911D9927092E000CAA0BAF
:10043000BB0B40916C0050916D0060916E0070910B
:100440006F0084179507A607B70719F481E080931A
:100450006800A2DEACDE1092690008959DDEA7DE82
:10046000089510927B0087B38E7F87BB87B38B7F05
:1004700087BB88B38E7F88BB88B38B7F88BB88E6B9
:100480008DB9089587B38E7F87BB87B38B7F87BB7A
:1004900088B38E7F88BB88B38B7F88BB87B381602E
:1004A00087BB88B38E7F88BB8DE08A95F1F700000B
:1004B00087B3846087BB8DE08A95F1F7000088B32D
:1004C000816088BBE0917A00F0E0E358FF4F8081C3
:1004D0008FB980917A008F5F80937A0080EC8EB91B
:1004E00081E080937B00089590917B009111FCCF77
:1004F00010927A0093E090937800EDE7F0E080832B
:1005000061834283BFDF08951F920F920FB60F924F
:1005100011248F939F93EF93FF938EB180937C0070
:1005200080917C0086FF02C080E48EB980917C00BF
:10053000882314F480E88EB980917B00813051F0DB
:1005400030F0833009F451C0843091F06AC01092C9
:100550007B0069C08EB1807F8E608EB987B38E7F3D
:1005600087BB88B38E7F88BB84E080937B005BC0B1
:10057000789937C090917A00809178009817C0F4EC
:10058000E0917A00F0E0E358FF4F80818FB98091CD
:100590007A008F5F80937A0088B3816088BB87B3CD
:1005A000816087BB80EC8EB981E080937B003BC08B
:1005B00088B38E7F88BB87B3816087BB87B38B7F0F
:1005C00087BB88B38B7F88BB8DE08A95F1F70000ED
:1005D00087B38E7F87BB88B38E7F88BB10927B00EA
:1005E00022C083E080937B001EC081E0809379006D
:1005F00088B38E7F88BB87B3816087BB87B38B7FCF
:1006000087BB88B38B7F88BB8DE08A95F1F70000AC
:1006100087B38E7F87BB88B38E7F88BB10927B00A9
:1006200002C010927B00FF91EF919F918F910F90EC
:100630000FBE0F901F9018950F931F93CF93DF93CA
:10064000CDB7DEB768970FB6F894DEBF0FBECDBF4B
:1006500087E0E1E6F0E08E010F5F1F4FD8010190C7
:100660000D928A95E1F7809177004AE0BE016F5EB6
:100670007F4F90E03BD1809176004AE0BE016B5EF7
:100680007F4F90E033D1BE016F5E7F4FC80123D111
:10069000F80101900020E9F731978EE290E0918314
:1006A0008083BE016B5E7F4FC80115D1F8010190B8
:1006B0000020E9F7319780E290EB9183808383E417
:1006C00090E09383828340E262E0C801BAD06896EA
:1006D0000FB6F894DEBF0FBECDBFDF91CF911F9153
:1006E0000F9108958AB58E7F8ABD8AB582608ABDD2
:1006F00083B7877F83BF87E289BD81E083BF12BE56
:1007000089B7806189BF0895EDDFABDE78940895E5
:100710001F920F920FB60F9211248F9388B78061AA
:1007200088BF80917B00882319F08DB181608DB9DD
:1007300012BE8F910F900FBE0F901F9018958DE0F5
:100740008A95F1F700008DE08A95F1F700008DE0C1
:100750008A95F1F700008DE08A95F1F7000010E02E
:10076000D0E0C1E0D11107C0C7DD809168008823C7
:1007700011F0D1E0C0E0C11117C088B3806188BB1F
:10078000111102C0C1DF11E04FEA60E088E7ACDE82
:1007900045EA60E088E7A8DE80E029D04DDF44EA42
:1007A00060E088E7A1DEC1E0809179008823D1F282
:1007B00010927900D7CF883030F4482F4F70406BBB
:1007C00060E088E791DE0895CF93882374F0C2E05B
:1007D000C80F4C2F4F7060E088E786DE4C2F4295A3
:1007E0004F70406160E088E77FDECF910895CF933E
:1007F000DF93D0E01CC04D2F4F70406B60E088E766
:1008000073DE42E060E088E76FDE40E160E088E7A9
:100810006BDEC0E005C040E060E488E765DECF5FE6
:10082000CC23CCF78DE08A95F1F70000DF5FD8305C
:1008300010F3DF91CF910895482F60E488E754DEEC
:100840000895DF92EF92FF920F931F93CF93DF9360
:100850007C01862FC42FF70101900020E9F7319722
:10086000DE2EDE18A8DF8C2FAFDFD0E02AC0F70124
:10087000ED0FF11D0081003B59F486E0DDDF89E0DA
:10088000DBDF89E0D9DF86E0D7DF80E0D5DF18C085
:1008900010E000521109C801880F991F880F991F95
:1008A000080F191FC0E008C0F801EC0FF11DE25E4F
:1008B000FF4F8491C1DFCF5FC530B0F380E0BCDF74
:1008C000DF5FDD15A0F2DF91CF911F910F91FF90B7
:1008D000EF90DF900895FB01DC010D900020E9F717
:1008E000119701900D920020E1F70895BB274A303F
:1008F00031F4992322F4BDE2909581959F4F01C078
:10090000BB27FB015527AA27880F991FAA1FA417E9
:1009100010F0A41B83955051B9F7A05DAA3308F0DD
:10092000A95DA193009779F7B111B1931192CB0111
:1009300000C0DC01FC01672F71917723E1F732974A
:1009400004C07C916D9370836291AE17BF07C8F3AA
:060950000895F894FFCFAA
:080956002854454D503A2000E1
:00000001FF
