S01700004763634170706C69636174696F6E312E737265635B
S1130000A2C0BCC0BBC0BAC0B9C0B8C0B7C0B6C03B
S1130010B5C0B4C0E4C3B2C0B1C0B0C048C30000EE
S113002000000000005F00000007000700147F14B8
S11300307F14242A7F2A1223130864623649552226
S1130040500005030000001C2241000041221C0056
S113005014083E081408083E080800503000000840
S113006008080808006060000020100804023E51DF
S113007049453E00427F4000426151494621414585
S11300804B311814127F1027454545393C4A4949DC
S11300903001710905033649494936064949291E83
S11300A000363600000056360000081422410014C1
S11300B0141414140041221408020151090632498F
S11300C079413E7E1111117E7F494949363E4141B5
S11300D041227F4141221C7F494949417F09090945
S11300E0013E4149497A7F0808087F00417F410069
S11300F02040413F017F081422417F404040407F1F
S1130100020C027F7F0408107F3E4141413E7F097B
S11301100909063E4151215E7F091929464649498C
S1130120493101017F01013F4040403F1F204020F1
S11301301F3F4038403F63140814630708700807E2
S113014061514945430011241FBECFE5D2E0DEBF13
S1130150CDBF10E0A0E6B0E0E0EFFCE002C0059007
S11301600D92AE37B107D9F720E0AEE7B0E001C099
S11301701D92A13AB207E1F715D0B8C541CF44D2D8
S113018083E080936000789485D060E084E011D2AD
S113019060E084E0EFD160E085E00BD260E085E0D0
S11301A0E9D1089583E0809360002FEF83ED90E31D
S11301B0215080409040E1F700C00000E0DFD0E033
S11301C0809160008130B9F130F08230A1F0833049
S11301D009F44CC05CC088B38F7E88BB2FEF81E1EB
S11301E09AE7215080409040E1F700C0000082E08F
S11301F080936000E5CF88B3806188BB23D53AD370
S1130200C82FDF5F1DD5C43049F4DA3038F08D2FA4
S113021063D381E080936000D0E0D2CFC43029F46E
S1130220DA3018F410926000CBCFC43049F2109247
S11302306000D0E0C5CFF3D4F7D480E0D3D360918D
S113024096007091970080919800909199003ED407
S11302506091920070919300809194009091950028
S11302608BD4E7D492D310926000AACFE7D4D7D42A
S1130270DBD480E0B7D340E263E082E690E0DCD3F5
S113028044EA60E088E703D282E080936000109241
S1130290600096CF60E083E08CD161E083E06AD1B6
S11302A0089580E090E1D3D260E083E063D1DED2B0
S11302B0DFD28231E8F361E083E07BD160E083E068
S11302C059D188E090E0C3D2D1D20895CFD207C0EB
S11302D0CFD2853620F083E080937F00089583E0B9
S11302E087D18111F5CFC2D207C0C2D2853620F0A2
S11302F083E080937F00089583E07AD18823A9F373
S1130300B7D28B54803100F5B1D2809180008F5FD9
S11303108093800007C0ACD2853620F083E08093C0
S11303207F00089583E064D18111F5CFA1D28B546D
S1130330803130F4809180008F5F80938000089535
S113034082E080937F00089582E080937F00089587
S11303500F931F9372C0809161008150809361005C
S113036085D207C085D2853620F083E080937F0054
S113037068C083E03DD18823A9F378D207C078D23E
S1130380853620F083E080937F005BC083E030D12A
S11303908111F5CF6DD290916100983058F18D3272
S11303A008F44BC08091610090E0089741E050E070
S11303B060E070E08A019B0104C0000F111F221F3E
S11303C0331F8A95D2F7D901C80140918500509115
S11303D086006091870070918800842B952BA62B52
S11303E0B72B8093850090938600A0938700B093E9
S11303F0880023C08D3208F12091610081E090E0F3
S113040002C0880F991F2A95E2F74091810050910C
S113041082006091830070918400092E000CAA0B65
S1130420BB0B842B952BA62BB72B80938100909329
S11304308200A0938300B0938400809161008111B5
S11304408ACF1F910F91089510928A00109289000B
S113045010928C0010928B001092850010928600EE
S1130460109287001092880010927E0010927F00F4
S113047010928100109282001092830010928400E6
S113048088E2809361001092800060E083E091D064
S113049061E083E06FD0D4D104DF80917F008111CB
S11304A061C014DF80917F0081115EC051DF8091B3
S11304B07F0081115BC0C8D1809185009091860036
S11304C0A0918700B091880080938B008091850073
S11304D090918600A0918700B0918800892F9A2F6F
S11304E0AB2FBB2780938C00809185009091860070
S11304F0A0918700B0918800CD01AA27BB278093E3
S113050089008091850090918600A0918700B09128
S113051088008B2F9927AA27BB2780938A002091D4
S11305208B0080918C0090E0820F911D20918900B6
S1130530820F911D20918A00820F911D9927092E07
S1130540000CAA0BBB0B409181005091820060917A
S113055083007091840084179507A607B70741F4B8
S113056084E0089583E0089583E0089583E0089586
S113057083E00895613069F448B321E030E0B901C3
S113058002C0660F771F8A95E2F7CB01842B88BBE4
S1130590089561110DC048B321E030E0B90102C0F3
S11305A0660F771F8A95E2F7CB018095842388BB79
S11305B00895613071F447B321E030E0B90102C01D
S11305C0660F771F8A95E2F7CB018095842387BB5A
S11305D0089561110CC047B321E030E0B90102C0B5
S11305E0660F771F8A95E2F7CB01842B87BB0895AA
S11305F046B321E030E0B90102C0660F771F8A9547
S1130600E2F7CB01842308951092900087B38E7F84
S113061087BB87B38B7F87BB88B38E7F88BB88B348
S11306208B7F88BB88E68DB9089587B38E7F87BB9F
S113063087B38B7F87BB88B38E7F88BB88B38B7F60
S113064088BB87B3816087BB88B38E7F88BB8DE00E
S11306508A95F1F7000087B3846087BB8DE08A95A3
S1130660F1F7000088B3816088BBE0918F00F0E06F
S1130670E656FF4F80818FB980918F008F5F809302
S11306808F0080EC8EB981E0809390000895909162
S113069090009111FCCF10928F0093E090938D0005
S11306A0EAE9F0E0808361834283BFDF08951F920B
S11306B00F920FB60F9211248F939F93EF93FF9392
S11306C08EB1809391008091910086FF02C080E4F6
S11306D08EB980919100882314F480E88EB98091BA
S11306E09000813051F030F0833009F451C08430EF
S11306F091F06AC01092900069C08EB1807F8E60C4
S11307008EB987B38E7F87BB88B38E7F88BB84E026
S1130710809390005BC0789937C090918F0080914E
S11307208D009817C0F4E0918F00F0E0E656FF4F7B
S113073080818FB980918F008F5F80938F0088B301
S1130740816088BB87B3816087BB80EC8EB981E010
S1130750809390003BC088B38E7F88BB87B3816051
S113076087BB87B38B7F87BB88B38B7F88BB8DE0C8
S11307708A95F1F7000087B38E7F87BB88B38E7F9D
S113078088BB1092900022C083E0809390001EC02A
S113079081E080938E0088B38E7F88BB87B38160AD
S11307A087BB87B38B7F87BB88B38B7F88BB8DE088
S11307B08A95F1F7000087B38E7F87BB88B38E7F5D
S11307C088BB1092900002C010929000FF91EF91AC
S11307D09F918F910F900FBE0F901F9018951F92AD
S11307E00F920FB60F9211248F9388B7806188BF40
S11307F080919000882319F08DB181608DB912BE6B
S11308008F910F900FBE0F901F9018958AB58E7F11
S11308108ABD8AB582608ABD83B7877F83BF87E23A
S113082089BD81E083BF12BE89B7806189BF089505
S113083089B78F7E89BF089589B7806189BF08957C
S113084084E080BF1FBC089510BE1FBC089588308B
S1130850910521F08115904121F006C084E080BF0C
S113086008958EE080BF089510BE08951FBC0895BA
S11308708FB50895E9DD90918C0020919800309116
S11308809900290F311D309399002093980090917D
S11308908B002091960030919700290F311D3093E1
S11308A097002093960090918A00209194003091B3
S11308B09500290F311D3093950020939400909159
S11308C08A002091920030919300290F311D3093BA
S11308D093002093920008950F931F93CF93DF9377
S11308E0282F30E08091980090919900B901ACD103
S11308F0EB01709399006093980080919600909119
S11309009700B901A1D1E62FF72F60939600709359
S113091097008091940090919500B90195D18B0135
S1130920709395006093940080919200909193004D
S1130930B9018AD1862F972F609392007093930008
S11309408A30910568F06AE070E07ED1909393005C
S1130950809392000F5F1F4F1093950000939400B3
S1130960EA30F10568F0CF016AE070E06DD1909350
S11309709700809396002196D0939900C093980095
S1130980DF91CF911F910F910895109299001092C9
S11309909800109297001092960010929500109271
S11309A0940010929300109292000895883030F4CD
S11309B0482F4F70406B60E088E769DE0895CF935D
S11309C0882374F0C2E0C80F4C2F4F7060E088E7B2
S11309D05EDE4C2F42954F70406160E088E757DE41
S11309E0CF910895CF93DF93D0E01CC04D2F4F706B
S11309F0406B60E088E74BDE42E060E088E747DE7A
S1130A0040E160E088E743DEC0E005C040E060E428
S1130A1088E73DDECF5FCC23CCF78DE08A95F1F7F4
S1130A200000DF5FD83010F3DF91CF910895482F95
S1130A3060E488E72CDE0895DF92EF92FF920F9333
S1130A401F93CF93DF937C01862FC42FF70101906E
S1130A500020E9F73197DE2EDE18A8DF8C2FAFDFF8
S1130A60D0E02AC0F701ED0FF11D0081003B59F4DD
S1130A7086E0DDDF89E0DBDF89E0D9DF86E0D7DFF0
S1130A8080E0D5DF18C010E000521109C801880FBA
S1130A90991F880F991F080F191FC0E008C0F8019B
S1130AA0EC0FF11DE25EFF4F8491C1DFCF5FC530D3
S1130AB0B0F380E0BCDFDF5FDD15A0F2DF91CF9102
S1130AC01F910F91FF90EF90DF900895FF920F9385
S1130AD01F93CF93DF93CDB7DEB768970FB6F89423
S1130AE0DEBF0FBECDBFF62E97E0EFE6F0E08E013D
S1130AF00F5F1F4FD80101900D929A95E1F74AE0DC
S1130B00BE016F5E7F4F90E0BED04AE0BE016B5ED7
S1130B107F4F8F2D90E0B7D0BE016F5E7F4FC8012D
S1130B20A7D0F80101900020E9F731978EE290E018
S1130B3091838083BE016B5E7F4FC80199D0F80119
S1130B4001900020E9F7319780E290EB9183808354
S1130B5083E490E09383828340E262E0C8016CDF27
S1130B6068960FB6F894DEBF0FBECDBFDF91CF916C
S1130B701F910F91FF900895FF920F931F93CF93AE
S1130B80DF93CDB7DEB768970FB6F894DEBF0FBE1C
S1130B90CDBFF62E97E0E6E7F0E08E010F5F1F4F22
S1130BA0D80101900D929A95E1F74AE0BE016F5E7B
S1130BB07F4F90E068D04AE0BE016B5E7F4F8F2D7F
S1130BC090E061D0BE016F5E7F4FC80151D0F80143
S1130BD001900020E9F731978EE290E091838083C1
S1130BE0BE016B5E7F4FC80143D0F8010190002025
S1130BF0E9F7319780E295E291838083128240E2A3
S1130C0065E0C80119DF68960FB6F894DEBF0FBE21
S1130C10CDBFDF91CF911F910F91FF9008954FEABF
S1130C2060E088E734DD089545EA60E088E72FDD79
S1130C30089544EA60E088E72ADD0895E7DD089531
S1130C40FBDD0895F5DD0895AA1BBB1B51E107C028
S1130C50AA1FBB1FA617B70710F0A61BB70B881F48
S1130C60991F5A95A9F780959095BC01CD010895D7
S1130C70FB01DC010D900020E9F7119701900D9222
S1130C800020E1F70895BB274A3031F4992322F478
S1130C90BDE2909581959F4F01C0BB27FB0155276D
S1130CA0AA27880F991FAA1FA41710F0A41B8395C5
S1130CB05051B9F7A05DAA3308F0A95DA19300973C
S1130CC079F7B111B1931192CB0100C0DC01FC01A1
S1130CD0672F71917723E1F7329704C07C916D936C
S1130CE070836291AE17BF07C8F30895F894FFCFDD
S1130CF003284D4541535552494E472E2E2E00543C
S1110D00454D503A200048554D3A2020000041
S9030000FC
