S01700004763634170706C69636174696F6E312E737265635B
S11300002EC048C047C046C045C044C043C042C0DB
S113001041C040C028C23EC03DC03CC085C1FFFFB6
S1130020FF7F7FF71F0F0F0F0F0F1F2FF77F80C06A
S1130030E0F8F8F8F8FEFEFEFE7E7E7C780080C0D4
S1130040E0F8F8F8F8FEFEFEFE7E7E7C780080C0C4
S1130050E0F8F8F8F8FEFEFEFE7E7E7C78001124BF
S11300601FBECFE5D2E0DEBFCDBF10E0A0E6B0E01A
S1130070EEEEF5E002C005900D92A236B107D9F775
S113008020E0A2E6B0E001C01D92AA37B207E1F772
S113009001D2ABC2B5CF87B3886087BB88B3886011
S11300A088BB089584E080BF1FBC08958EE080BFA4
S11300B088B3877F88BB1FBC8FB58231E8F387B3D1
S11300C0877F87BB88B3877F88BB84E080BF1FBCE2
S11300D00895B399FECF1FBCB39BFECF8FB58B346D
S11300E0D8F08FB58B35C0F41FBC809165008F5F4D
S11300F080936500B399FECF8FB58B3448F08FB5EC
S11301008B3530F4809165008F5F8093650008958E
S113011082E080936400089582E0809364000895EF
S11301202EC080916000815080936000B39BFECF0D
S11301301FBCB399FECF8FB58D3208F120916000BA
S113014081E090E002C0880F991F2A95E2F7409160
S11301506600509167006091680070916900092EF3
S1130160000CAA0BBB0B842B952BA62BB72B8093CF
S1130170660090936700A0936800B0936900809133
S113018060008111CECF089580916300823081F1A7
S113019028F4882349F08130F1F008958330D1F1B7
S11301A0843009F444C0089510926B0010926A00E0
S11301B010926D0010926C0010926600109267000D
S11301C01092680010926900109262006BDF81E067
S11301D08093630008956ADF80916400882321F08E
S11301E085E080936300089582E08093630008951E
S11301F070DF80916400882321F085E080936300A0
S1130200089580916500823009F04BC083E08093AB
S11302106300089585DF80916400882321F085E0E0
S113022080936300089584E080936300089588B305
S1130230806188BB8091660090916700A0916800FE
S1130240B091690080936C00809166009091670082
S1130250A0916800B0916900892F9A2FAB2FBB271A
S113026080936C008091660090916700A091680073
S1130270B0916900CD01AA27BB2780936C008091BF
S1130280660090916700A0916800B0916900BB2757
S1130290AA27CD0180936C0081E0809362001092C4
S11302A06300089587B38E7F87BB87B38B7F87BB3B
S11302B088B38E7F88BB88B38B7F88BB87B381600C
S11302C087BB88B38E7F88BB8DE08A95F1F70000E9
S11302D087B3846087BB8DE08A95F1F7000088B30B
S11302E0816088BBE0917000F0E0ED58FF4F8081A1
S11302F08FB9809170008F5F8093700080EC8EB90D
S113030081E0809371000895909171009111FCCF68
S11303101092700093E090936E00E3E7F0E0808326
S113032061834283BFDF08951F920F920FB60F922D
S113033011248F939F93EF93FF938EB18093720058
S11303408091720086FF02C080E48EB980917200B1
S1130350882314F480E88EB980917100813051F0C3
S113036030F0833009F451C0843091F06AC01092A7
S1130370710069C08EB1807F8E608EB987B38E7F25
S113038087BB88B38E7F88BB84E0809371005BC099
S1130390789937C09091700080916E009817C0F4DE
S11303A0E0917000F0E0ED58FF4F80818FB98091AB
S11303B070008F5F8093700088B3816088BB87B3BF
S11303C0816087BB80EC8EB981E0809371003BC073
S11303D088B38E7F88BB87B3816087BB87B38B7FED
S11303E087BB88B38B7F88BB8DE08A95F1F70000CB
S11303F087B38E7F87BB88B38E7F88BB10927100D2
S113040022C083E0809371001EC081E080936F005E
S113041088B38E7F88BB87B3816087BB87B38B7FAC
S113042087BB88B38B7F88BB8DE08A95F1F700008A
S113043087B38E7F87BB88B38E7F88BB1092710091
S113044002C010927100FF91EF919F918F910F90D4
S11304500FBE0F901F90189589B78F7E89BF83B701
S1130460887F83BF08951F920F920FB60F921124B5
S11304708F9388B7806188BF80917100882319F0B9
S11304808DB181608DB912BE8F910F900FBE0F9008
S11304901F90189587B3806187BB87B3886087BB3B
S11304A088B38F7E88BB88B3877F88BB8DE08A95AD
S11304B0F1F700008DE08A95F1F700008DE08A9550
S11304C0F1F700008DE08A95F1F70000E4DD5CDED1
S11304D0809162008111109261008091610081110C
S11304E016C04FEA60E088E70FDF45EA60E088E77E
S11304F00BDF80E032D040E262E080E058D044EA92
S113050060E088E701DFA8DF81E0809361008091EB
S11305106F008823E1F210926F0088B3806188BB7A
S1130520D6CF883030F4482F4F70406B60E088E7B6
S1130530EBDE0895CF93882374F0C2E0C80F4C2FEC
S11305404F7060E088E7E0DE4C2F42954F704061C9
S113055060E088E7D9DECF910895CF93DF93D0E0B0
S11305601CC04D2F4F70406B60E088E7CDDE42E049
S113057060E088E7C9DE40E160E088E7C5DEC0E00E
S113058005C040E060E488E7BFDECF5FCC23CCF752
S11305908DE08A95F1F70000DF5FD83010F3DF912A
S11305A0CF910895482F60E488E7AEDE0895CF9395
S11305B0DF93D82F862FC42FB4DF8C2FBBDFC0E08E
S11305C00FC0ED2FF0E0E295F295F07FFE27E07F7B
S11305D0FE27EC0FF11DE25EFF4F8491E3DFCF5F56
S11105E0C03178F3DF91CF910895F894FFCFE6
S10505EE2001E6
S9030000FC
