S01700004763634170706C69636174696F6E312E737265635B
S11300000EC01DC01CC01BC01AC019C018C017C028
S113001016C015C06AC013C012C011C07DC011241F
S11300201FBECFE5D2E0DEBFCDBF20E0A0E6B0E04A
S113003001C01D92A336B207E1F7C1D0CAC0E0CF18
S11300408AB58E7F8ABD8AB582608ABD83B7877F71
S113005083BF87E289BD81E083BF12BE89B7806117
S113006089BF089587B38E7F87BB87B38B7F87BB98
S113007088B38E7F88BB88B38B7F88BB88E68DB9B5
S1130080089587B38E7F87BB87B38B7F87BB88B385
S11300908E7F88BB88B38B7F88BB87B3816087BB27
S11300A088B38E7F88BB8DE08A95F1F7000087B313
S11300B0846087BB8DE08A95F1F7000088B3816086
S11300C088BB88E78FB980EC8EB981E080936100AA
S11300D00895B6DFC7DF78941092610087B380611A
S11300E087BB88B38F7E88BB08951F920F920FB68B
S11300F00F9211248F9388B7806188BF809161002B
S1130100882319F08DB181608DB912BE8F910F9043
S11301100FBE0F901F9018951F920F920FB60F925B
S113012011248F938EB1809362008091620086FFC8
S113013002C080E48EB980916100823099F128F484
S1130140882341F0813049F032C0853071F1863026
S113015091F02DC0109261002CC08EB1807F8E6012
S11301608EB987B38E7F87BB88B38E7F88BB86E0CA
S1130170809361001EC0789911C088B3806188BBE8
S113018087B3816087BB88B3816088BB8AEB8FB9F2
S113019080EC8EB982E0809361000BC085E080938F
S11301A0610007C01092610004C0109261001092B7
S11301B061008F910F900FBE0F901F90189589DFEB
S11301C0809160008111FCCF5CDF81E0809360004E
S10901D0F7CFF894FFCF05
S9030000FC
