S01700004763634170706C69636174696F6E312E737265635B
S1130000A2C0BCC0BBC0BAC0B9C0B8C0B7C0B6C03B
S1130010B5C0B4C092C3B2C0B1C0B0C0D7C20000B2
S113002000000000005F00000007000700147F14B8
S11300307F14242A7F2A1223130864623649552226
S1130040500005030000001C2241000041221C0056
S113005014083E081408083E080800503000000840
S113006008080808006060000020100804023E51DF
S113007049453E00427F4000426151494621414585
S11300804B311814127F1027454545393C4A4949DC
S11300903001710905033649494936064949291E83
S11300A000363600000056360000081422410014C1
S11300B0141414140041221408020151090632498F
S11300C079413E7E1111117E7F494949363E4141B5
S11300D041227F4141221C7F494949417F09090945
S11300E0013E4149497A7F0808087F00417F410069
S11300F02040413F017F081422417F404040407F1F
S1130100020C027F7F0408107F3E4141413E7F097B
S11301100909063E4151215E7F091929464649498C
S1130120493101017F01013F4040403F1F204020F1
S11301301F3F4038403F63140814630708700807E2
S113014061514945430011241FBECFE5D2E0DEBF13
S1130150CDBF10E0A0E6B0E0E2E2FBE002C0059013
S11301600D92A037B107D9F720E0A0E7B0E001C0B5
S11301701D92AC38B207E1F7F7D2D1C441CF60E0A9
S113018083E08CD161E083E06AD1089580E090E15E
S1130190B7D160E083E063D1C2D1C3D18231E8F347
S11301A061E083E07BD160E083E059D188E090E0B6
S11301B0A7D1B5D10895B3D107C0B3D1853620F006
S11301C083E080937100089583E087D18111F5CF96
S11301D0A6D107C0A6D1853620F083E080937100B4
S11301E0089583E07AD18823A9F39BD18B5480317D
S11301F000F595D1809172008F5F8093720007C0E3
S113020090D1853620F083E080937100089583E0D7
S113021064D18111F5CF85D18B54803130F4809134
S113022072008F5F80937200089582E08093710062
S1130230089582E08093710008950F931F9372C014
S11302408091600081508093600069D107C069D1BA
S1130250853620F083E08093710068C083E03DD14F
S11302608823A9F35CD107C05CD1853620F083E0F4
S1130270809371005BC083E030D18111F5CF51D1FF
S113028090916000983058F18D3208F44BC0809101
S1130290600090E0089741E050E060E070E08A017F
S11302A09B0104C0000F111F221F331F8A95D2F730
S11302B0D901C8014091770050917800609179008C
S11302C070917A00842B952BA62BB72B8093770003
S11302D090937800A0937900B0937A0023C08D3274
S11302E008F12091600081E090E002C0880F991F1E
S11302F02A95E2F740917300509174006091750063
S113030070917600092E000CAA0BBB0B842B952B45
S1130310A62BB72B8093730090937400A093750061
S1130320B09376008091600081118ACF1F910F9164
S1130330089510927C0010927B0010927E0010921F
S11303407D0010927700109278001092790010923C
S11303507A00109270001092710010927300109243
S11303607400109275001092760088E28093600009
S11303701092720060E083E091D061E083E06FD07E
S1130380B8D004DF80917100811161C014DF8091C5
S1130390710081115EC051DF8091710081115BC0D9
S11303A0ACD08091770090917800A0917900B091C1
S11303B07A0080937D008091770090917800A091DD
S11303C07900B0917A00892F9A2FAB2FBB278093A5
S11303D07E008091770090917800A0917900B0918F
S11303E07A00CD01AA27BB2780937B0080917700F8
S11303F090917800A0917900B0917A008B2F992781
S1130400AA27BB2780937C0020917D0080917E00E9
S113041090E0820F911D20917B00820F911D20910D
S11304207C00820F911D9927092E000CAA0BBB0B8F
S11304304091730050917400609175007091760042
S113044084179507A607B70741F484E0089583E06D
S1130450089583E0089583E0089583E0089561306A
S113046069F448B321E030E0B90102C0660F771F98
S11304708A95E2F7CB01842B88BB089561110DC0E6
S113048048B321E030E0B90102C0660F771F8A95B6
S1130490E2F7CB018095842388BB0895613071F421
S11304A047B321E030E0B90102C0660F771F8A9597
S11304B0E2F7CB018095842387BB089561110CC0BA
S11304C047B321E030E0B90102C0660F771F8A9577
S11304D0E2F7CB01842B87BB089546B321E030E0DB
S11304E0B90102C0660F771F8A95E2F7CB01842316
S11304F0089584E080BF1FBC089510BE1FBC0895FA
S11305008830910521F08115904121F006C084E0E6
S113051080BF08958EE080BF089510BE08951FBC6B
S113052008958FB508951092820087B38E7F87BB9C
S113053087B38B7F87BB88B38E7F88BB88B38B7F61
S113054088BB88E68DB9089587B38E7F87BB87B350
S11305508B7F87BB88B38E7F88BB88B38B7F88BB38
S113056087B3816087BB88B38E7F88BB8DE08A9513
S1130570F1F7000087B3846087BB8DE08A95F1F7BB
S1130580000088B3816088BBE0918100F0E0EB5704
S1130590FF4F80818FB9809181008F5F80938100AC
S11305A080EC8EB981E0809382000895909182005E
S11305B09111FCCF1092810093E090937F00E5E8C5
S11305C0F0E0808361834283BFDF08951F920F921E
S11305D00FB60F9211248F939F93EF93FF938EB1D5
S11305E0809383008091830086FF02C080E48EB9EB
S11305F080918300882314F480E88EB9809182006E
S1130600813051F030F0833009F451C0843091F0DE
S11306106AC01092820069C08EB1807F8E608EB9EC
S113062087B38E7F87BB88B38E7F88BB84E080933B
S113063082005BC0789937C09091810080917F00DF
S11306409817C0F4E0918100F0E0EB57FF4F8081F0
S11306508FB9809181008F5F8093810088B381601E
S113066088BB87B3816087BB80EC8EB981E08093BF
S113067082003BC088B38E7F88BB87B3816087BB11
S113068087B38B7F87BB88B38B7F88BB8DE08A95CC
S1130690F1F7000087B38E7F87BB88B38E7F88BB5A
S11306A01092820022C083E0809382001EC081E009
S11306B08093800088B38E7F88BB87B3816087BBBB
S11306C087B38B7F87BB88B38B7F88BB8DE08A958C
S11306D0F1F7000087B38E7F87BB88B38E7F88BB1A
S11306E01092820002C010928200FF91EF919F91BC
S11306F08F910F900FBE0F901F9018958AB58E7F23
S11307008ABD8AB582608ABD83B7877F83BF87E24B
S113071089BD81E083BF12BE89B7806189BF089516
S113072002DF82E080938400789429DD60E084E035
S1130730B5DE60E084E093DE08951F920F920FB659
S11307400F9211248F9388B7806188BF80918200B3
S1130750882319F08DB181608DB912BE8F910F90ED
S11307600FBE0F901F90189582E0809384002DE0B7
S11307702A95F1F700008DE08A95F1F700009DE0DD
S11307809A95F1F700002DE02A95F1F70000C8DFF3
S113079080918400813049F118F0823089F03BC0A7
S11307A088B38F7E88BB8FEF9FE423EC8150904009
S11307B02040E1F700C0000082E080938400E8CF8D
S11307C088B3806188BB89B78F7E89BFB2DD99B752
S11307D0906199BF843021F481E080938400D8CF64
S11307E08430B1F210928400D3CF88DF50D154D139
S11307F080E030D060917D0080917E009FD0609138
S11308007B0080917C00F0D044EA60E088E7CEDE93
S113081010928400BDCF10928400BACF883030F497
S1130820482F4F70406B60E088E7C0DE0895CF9397
S1130830882374F0C2E0C80F4C2F4F7060E088E743
S1130840B5DE4C2F42954F70406160E088E7AEDE24
S1130850CF910895CF93DF93D0E01CC04D2F4F70FC
S1130860406B60E088E7A2DE42E060E088E79EDE5D
S113087040E160E088E79ADEC0E005C040E060E463
S113088088E794DECF5FCC23CCF78DE08A95F1F72F
S11308900000DF5FD83010F3DF91CF910895482F27
S11308A060E488E783DE0895DF92EF92FF920F936E
S11308B01F93CF93DF937C01862FC42FF701019000
S11308C00020E9F73197DE2EDE18A8DF8C2FAFDF8A
S11308D0D0E02AC0F701ED0FF11D0081003B59F46F
S11308E086E0DDDF89E0DBDF89E0D9DF86E0D7DF82
S11308F080E0D5DF18C010E000521109C801880F4C
S1130900991F880F991F080F191FC0E008C0F8012C
S1130910EC0FF11DE25EFF4F8491C1DFCF5FC53064
S1130920B0F380E0BCDFDF5FDD15A0F2DF91CF9193
S11309301F910F91FF90EF90DF900895FF920F9316
S11309401F93CF93DF93CDB7DEB768970FB6F894B4
S1130950DEBF0FBECDBFF62E97E0E1E6F0E08E01DC
S11309600F5F1F4FD80101900D929A95E1F74AE06D
S1130970BE016F5E7F4F90E09FD04AE0BE016B5E88
S11309807F4F8F2D90E098D0BE016F5E7F4FC801DE
S113099088D0F80101900020E9F731978EE290E0C9
S11309A091838083BE016B5E7F4FC8017AD0F801CA
S11309B001900020E9F7319780E290EB91838083E6
S11309C083E490E09383828340E262E0C8016CDFB9
S11309D068960FB6F894DEBF0FBECDBFDF91CF91FE
S11309E01F910F91FF900895FF920F931F93CF9340
S11309F0DF93CDB7DEB768970FB6F894DEBF0FBEAE
S1130A00CDBFF62E97E0E8E6F0E08E010F5F1F4FB2
S1130A10D80101900D929A95E1F74AE0BE016F5E0C
S1130A207F4F90E049D04AE0BE016B5E7F4F8F2D2F
S1130A3090E042D0BE016F5E7F4FC80132D0F80112
S1130A4001900020E9F731978EE290E09183808352
S1130A50BE016B5E7F4FC80124D0F80101900020D5
S1130A60E9F7319780E295E291838083128240E234
S1130A7065E0C80119DF68960FB6F894DEBF0FBEB3
S1130A80CDBFDF91CF911F910F91FF9008954FEA51
S1130A9060E088E78BDD089545EA60E088E786DD5D
S1130AA00895FB01DC010D900020E9F711970190F6
S1130AB00D920020E1F70895BB274A3031F49923C1
S1130AC022F4BDE2909581959F4F01C0BB27FB01A5
S1130AD05527AA27880F991FAA1FA41710F0A41B33
S1130AE083955051B9F7A05DAA3308F0A95DA1938D
S1130AF0009779F7B111B1931192CB0100C0DC01D9
S1130B00FC01672F71917723E1F7329704C07C9140
S1130B106D9370836291AE17BF07C8F30895F8947C
S1050B20FFCF01
S1130B222854454D503A200048554D3A20200000A3
S9030000FC
