:100000002EC048C059C046C045C044C043C042C0CD
:1000100041C040C0DAC13EC03DC03CC037C1FFFF57
:10002000FF7F7FF71F0F0F0F0F0F1F2FF77F80C06E
:10003000E0F8F8F8F8FEFEFEFE7E7E7C780080C0D8
:10004000E0F8F8F8F8FEFEFEFE7E7E7C780080C0C8
:10005000E0F8F8F8F8FEFEFEFE7E7E7C78001124C3
:100060001FBECFE5D2E0DEBFCDBF10E0A0E6B0E01E
:10007000E8E4F5E002C005900D92A236B107D9F789
:1000800020E0A2E6B0E001C01D92A637B207E1F77A
:10009000B3D158C2B5CF87B3886087BB88B38860B7
:1000A00088BB08958BB780628BBF85B3886085BBA2
:1000B00080E28ABF789408951F920F920FB60F9234
:1000C00011248F939F938AB780628ABF81E08093C7
:1000D0006500809162008230B9F4809164008823C9
:1000E00059F08FB590E090936900809368001FBC31
:1000F00081E08093630008C01FBC109269001092D9
:10010000680081E0809364009F918F910F900FBEF3
:100110000F901F90189584E080BF1FBC08958EE05B
:1001200080BF88B3877F88BB1FBC8FB58231E8F35F
:1001300087B3877F87BB88B3877F88BB84E080BF16
:100140001FBC089580916300882309F11092630019
:1001500080916800909169008E349105A8F080919B
:100160006800909169008835910570F410926900DB
:100170001092680080916700823048F48091670097
:100180008F5F80936700089582E0809366000895F2
:1001900080916200823001F128F4882341F081309F
:1001A00059F00895843049F1853051F10895B3DF55
:1001B00081E0809362000895B2DF80916600882319
:1001C00021F085E0809362000895B39BFECF6ADF43
:1001D00082E0809362000895B5DF809166008823F5
:1001E00021F085E08093620008958091670082305D
:1001F00051F483E0809362000895109262000895A4
:1002000088B3806188BB089587B38E7F87BB87B32F
:100210008B7F87BB88B38E7F88BB88B38B7F88BB7F
:1002200087B3816087BB88B38E7F88BB8DE08A955A
:10023000F1F7000087B3846087BB8DE08A95F1F702
:10024000000088B3816088BBE0916C00F0E0E15968
:10025000FF4F80818FB980916C008F5F80936C001D
:1002600080EC8EB981E080936D00089590916D00CF
:100270009111FCCF10926C0093E090936A00EFE62E
:10028000F0E0808361834283BFDF08951F920F9265
:100290000FB60F9211248F939F93EF93FF938EB11C
:1002A00080936E0080916E0086FF02C080E48EB95C
:1002B00080916E00882314F480E88EB980916D00DF
:1002C000813051F030F0833009F451C0843091F026
:1002D0006AC010926D0069C08EB1807F8E608EB949
:1002E00087B38E7F87BB88B38E7F88BB84E0809383
:1002F0006D005BC0789937C090916C0080916A0066
:100300009817C0F4E0916C00F0E0E159FF4F808154
:100310008FB980916C008F5F80936C0088B381608F
:1003200088BB87B3816087BB80EC8EB981E0809306
:100330006D003BC088B38E7F88BB87B3816087BB6D
:1003400087B38B7F87BB88B38B7F88BB8DE08A9513
:10035000F1F7000087B38E7F87BB88B38E7F88BBA1
:1003600010926D0022C083E080936D001EC081E07A
:1003700080936B0088B38E7F88BB87B3816087BB17
:1003800087B38B7F87BB88B38B7F88BB8DE08A95D3
:10039000F1F7000087B38E7F87BB88B38E7F88BB61
:1003A00010926D0002C010926D00FF91EF919F912D
:1003B0008F910F900FBE0F901F90189589B78F7E69
:1003C00089BF83B7887F83BF08951F920F920FB6AE
:1003D0000F9211248F9388B7806188BF80916D0040
:1003E000882319F08DB181608DB912BE8F910F9065
:1003F0000FBE0F901F90189587B3806187BB87B39E
:10040000886087BB88B38F7E88BB88B3877F88BBB3
:100410008DE08A95F1F700008DE08A95F1F70000F4
:100420008DE08A95F1F700008DE08A95F1F70000E4
:1004300032DE80916000811116C04FEA60E088E7EB
:1004400015DF45EA60E088E711DF80E033D040E265
:1004500062E080E059D044EA60E088E707DFAEDF81
:1004600081E08093600094DE80916B00882309F323
:1004700010926B0088B3806188BBDBCF883030F48A
:10048000482F4F70406B60E088E7F0DE0895CF930F
:10049000882374F0C2E0C80F4C2F4F7060E088E7EB
:1004A000E5DE4C2F42954F70406160E088E7DEDE6C
:1004B000CF910895CF93DF93D0E01CC04D2F4F70A4
:1004C000406B60E088E7D2DE42E060E088E7CEDEA5
:1004D00040E160E088E7CADEC0E005C040E060E4DB
:1004E00088E7C4DECF5FCC23CCF78DE08A95F1F7A7
:1004F0000000DF5FD83010F3DF91CF910895482FCF
:1005000060E488E7B3DE0895CF93DF93D82F862F7A
:10051000C42FB4DF8C2FBBDFC0E00FC0ED2FF0E0A5
:10052000E295F295F07FFE27E07FFE27EC0FF11DAC
:10053000E25EFF4F8491E3DFCF5FC03178F3DF915C
:08054000CF910895F894FFCF5C
:020548000100B0
:00000001FF
