S01700004763634170706C69636174696F6E312E737265635B
S1130000A2C0BCC0BBC0BAC0B9C0B8C0B7C0B6C03B
S1130010B5C0B4C08BC4B2C0B1C0B0C0EFC300009F
S113002000000000005F00000007000700147F14B8
S11300307F14242A7F2A1223130864623649552226
S1130040500005030000001C2241000041221C0056
S113005014083E081408083E080800503000000840
S113006008080808006060000020100804023E51DF
S113007049453E00427F4000426151494621414585
S11300804B311814127F1027454545393C4A4949DC
S11300903001710905033649494936064949291E83
S11300A000363600000056360000081422410014C1
S11300B0141414140041221408020151090632498F
S11300C079413E7E1111117E7F494949363E4141B5
S11300D041227F4141221C7F494949417F09090945
S11300E0013E4149497A7F0808087F00417F410069
S11300F02040413F017F081422417F404040407F1F
S1130100020C027F7F0408107F3E4141413E7F097B
S11301100909063E4151215E7F091929464649498C
S1130120493101017F01013F4040403F1F204020F1
S11301301F3F4038403F63140814630708700807E2
S113014061514945430011241FBECFE5D2E0DEBF13
S1130150CDBF10E0A0E6B0E0EEE3FEE002C0059003
S11301600D92A23AB107D9F720E0A2EAB0E001C0AB
S11301701D92AA3CB207E1F71FD15FC641CF80911F
S1130180A2008130B1F020F0823009F442C0089519
S1130190FCD5ECD5F0D580E0CCD440E263E083E636
S11301A090E0F1D444EA60E088E718D381E08093DA
S11301B0A20088B38F7E88BB8091A60081110BC0FA
S11301C08091A6008F5F8093A60040E263E08DE6F5
S11301D090E0D9D41AC08091A600813059F480915E
S11301E0A6008F5F8093A60040E263E08AE790E078
S11301F0CAD40BC08091A600823039F440E263E097
S113020087E890E0C0D41092A60082E08093A20018
S113021008952FEF81EE94E0215080409040E1F763
S113022000C000008091A5008F5F8093A50080919D
S1130230A500853020F481E08093A2000895809188
S1130240A5008530B0F11092A50088B3806188BB09
S1130250A0D5B7D3809361008091A4008F5F809371
S1130260A40095D580916100843041F48091A4006C
S11302708A3020F081E08093A3000895809161008A
S1130280843059F48091A4008A3038F485E0809356
S1130290610081E08093A200089580916100843020
S11302A041F01092A40085E08093610081E0809386
S11302B0A200089580916000813009F447C018F0CD
S11302C0823089F0089588B38F7E88BB2FEF81E157
S11302D09AE7215080409040E1F700C0000082E09E
S11302E080936000089588B3806188BB52D569D338
S11302F0809361008091A4008F5F8093A40047D510
S113030080916100843041F48091A4008A3020F00F
S113031081E080936000089580916100843051F4FD
S11303208091A4008A3030F485E0809361001092BB
S11303306000089580916100843039F11092A40026
S113034085E0809361001092600008958091A4007C
S11303506AD31092A4000AD50ED580E0EAD3609146
S1130360BF007091C0008091C1009091C20055D42B
S11303706091BB007091BC008091BD009091BE0063
S1130380A2D4FED4A9D3109260000895E4D11092AF
S1130390A3001092A20010926000789422D060E032
S11303A084E0AED160E084E08CD160E085E0A8D147
S11303B060E085E086D108952FEF83ED90E321502E
S11303C080409040E1F700C00000E0DF8091A3008E
S11303D0882319F0813019F0F9CFD1DEF7CF6ADF25
S11303E0F5CF60E083E08CD161E083E06AD10895C9
S11303F080E090E1D3D260E083E063D1DED2DFD24B
S11304008231E8F361E083E07BD160E083E059D19D
S113041088E090E0C3D2D1D20895CFD207C0CFD222
S1130420853620F083E08093A800089583E087D187
S11304308111F5CFC2D207C0C2D2853620F083E045
S11304408093A800089583E07AD18823A9F3B7D2D2
S11304508B54803100F5B1D28091A9008F5F8093D5
S1130460A90007C0ACD2853620F083E08093A800B1
S1130470089583E064D18111F5CFA1D28B548031EA
S113048030F48091A9008F5F8093A900089582E0E1
S11304908093A800089582E08093A80008950F93A4
S11304A01F9372C08091620081508093620085D254
S11304B007C085D2853620F083E08093A80068C009
S11304C083E03DD18823A9F378D207C078D285365A
S11304D020F083E08093A8005BC083E030D18111D9
S11304E0F5CF6DD290916200983058F18D3208F4B6
S11304F04BC08091620090E0089741E050E060E0DA
S113050070E08A019B0104C0000F111F221F331FDA
S11305108A95D2F7D901C8014091AE005091AF003D
S11305206091B0007091B100842B952BA62BB72B52
S11305308093AE009093AF00A093B000B093B1004D
S113054023C08D3208F12091620081E090E002C066
S1130550880F991F2A95E2F74091AA005091AB00A9
S11305606091AC007091AD00092E000CAA0BBB0B7E
S1130570842B952BA62BB72B8093AA009093AB00CA
S1130580A093AC00B093AD008091620081118ACF3A
S11305901F910F9108951092B3001092B20010921F
S11305A0B5001092B4001092AE001092AF001092F9
S11305B0B0001092B1001092A7001092A8001092FF
S11305C0AA001092AB001092AC001092AD0088E229
S11305D0809362001092A90060E083E091D061E012
S11305E083E06FD0D4D104DF8091A800811161C071
S11305F014DF8091A80081115EC051DF8091A800B2
S113060081115BC0C8D18091AE009091AF00A091E0
S1130610B000B091B1008093B4008091AE0090918D
S1130620AF00A091B000B091B100892F9A2FAB2FE9
S1130630BB278093B5008091AE009091AF00A0914C
S1130640B000B091B100CD01AA27BB278093B200BE
S11306508091AE009091AF00A091B000B091B10034
S11306608B2F9927AA27BB278093B3002091B4002E
S11306708091B50090E0820F911D2091B200820F0D
S1130680911D2091B300820F911D9927092E000C12
S1130690AA0BBB0B4091AA005091AB006091AC0037
S11306A07091AD0084179507A607B70741F484E05D
S11306B0089583E0089583E0089583E0089583E036
S11306C00895613069F448B321E030E0B90102C013
S11306D0660F771F8A95E2F7CB01842B88BB0895B8
S11306E061110DC048B321E030E0B90102C0660FCA
S11306F0771F8A95E2F7CB018095842388BB089500
S1130700613071F447B321E030E0B90102C0660FF3
S1130710771F8A95E2F7CB018095842387BB0895E0
S113072061110CC047B321E030E0B90102C0660F8B
S1130730771F8A95E2F7CB01842B87BB089546B3D4
S113074021E030E0B90102C0660F771F8A95E2F715
S1130750CB01842308951092B90087B38E7F87BBA1
S113076087B38B7F87BB88B38E7F88BB88B38B7F2F
S113077088BB88E68DB9089587B38E7F87BB87B31E
S11307808B7F87BB88B38E7F88BB88B38B7F88BB06
S113079087B3816087BB88B38E7F88BB8DE08A95E1
S11307A0F1F7000087B3846087BB8DE08A95F1F789
S11307B0000088B3816088BBE091B800F0E0ED539D
S11307C0FF4F80818FB98091B8008F5F8093B8000C
S11307D080EC8EB981E08093B90008959091B900BE
S11307E09111FCCF1092B80093E09093B600E3EC23
S11307F0F0E0808361834283BFDF08951F920F92EC
S11308000FB60F9211248F939F93EF93FF938EB1A2
S11308108093BA008091BA0086FF02C080E48EB94A
S11308208091BA00882314F480E88EB98091B900CD
S1130830813051F030F0833009F451C0843091F0AC
S11308406AC01092B90069C08EB1807F8E608EB983
S113085087B38E7F87BB88B38E7F88BB84E0809309
S1130860B9005BC0789937C09091B8008091B60008
S11308709817C0F4E091B800F0E0ED53FF4F808189
S11308808FB98091B8008F5F8093B80088B381607E
S113089088BB87B3816087BB80EC8EB981E080938D
S11308A0B9003BC088B38E7F88BB87B3816087BBA8
S11308B087B38B7F87BB88B38B7F88BB8DE08A959A
S11308C0F1F7000087B38E7F87BB88B38E7F88BB28
S11308D01092B90022C083E08093B9001EC081E069
S11308E08093B70088B38E7F88BB87B3816087BB52
S11308F087B38B7F87BB88B38B7F88BB8DE08A955A
S1130900F1F7000087B38E7F87BB88B38E7F88BBE7
S11309101092B90002C01092B900FF91EF919F911B
S11309208F910F900FBE0F901F9018951F920F92EA
S11309300FB60F9211248F9388B7806188BF80917E
S1130940B900882319F08DB181608DB912BE8F91E1
S11309500F900FBE0F901F9018958AB58E7F8ABD99
S11309608AB582608ABD83B7877F83BF87E289BDEA
S113097081E083BF12BE89B7806189BF089589B7BA
S11309808F7E89BF089589B7806189BF089584E007
S113099080BF1FBC089510BE1FBC08958830910508
S11309A021F08115904121F006C084E080BF0895B4
S11309B08EE080BF089510BE08951FBC08958FB5C2
S11309C00895E9DD9091B5002091C1003091C200F5
S11309D0290F311D3093C2002093C1009091B400BF
S11309E02091BF003091C000290F311D3093C00009
S11309F02093BF009091B3002091BD003091BE00C0
S1130A00290F311D3093BE002093BD009091B30097
S1130A102091BB003091BC00290F311D3093BC00E4
S1130A202093BB0008950F931F93CF93DF93282F38
S1130A3030E08091C1009091C200B901ACD1EB01CA
S1130A407093C2006093C1008091BF009091C00078
S1130A50B901A1D1E62FF72F6093BF007093C000B6
S1130A608091BD009091BE00B90195D18B01709326
S1130A70BE006093BD008091BB009091BC00B901A1
S1130A808AD1862F972F6093BB007093BC008A3065
S1130A90910568F06AE070E07ED19093BC00809389
S1130AA0BB000F5F1F4F1093BE000093BD00EA30E0
S1130AB0F10568F0CF016AE070E06DD19093C00059
S1130AC08093BF002196D093C200C093C100DF91F0
S1130AD0CF911F910F9108951092C2001092C100FE
S1130AE01092C0001092BF001092BE001092BD0080
S1130AF01092BC001092BB000895883030F4482F47
S1130B004F70406B60E088E769DE0895CF938823D7
S1130B1074F0C2E0C80F4C2F4F7060E088E75EDECF
S1130B204C2F42954F70406160E088E757DECF91CB
S1130B300895CF93DF93D0E01CC04D2F4F70406BCE
S1130B4060E088E74BDE42E060E088E747DE40E1B2
S1130B5060E088E743DEC0E005C040E060E488E789
S1130B603DDECF5FCC23CCF78DE08A95F1F7000012
S1130B70DF5FD83010F3DF91CF910895482F60E400
S1130B8088E72CDE0895DF92EF92FF920F931F9374
S1130B90CF93DF937C01862FC42FF70101900020AF
S1130BA0E9F73197DE2EDE18A8DF8C2FAFDFD0E017
S1130BB02AC0F701ED0FF11D0081003B59F486E0D6
S1130BC0DDDF89E0DBDF89E0D9DF86E0D7DF80E0A5
S1130BD0D5DF18C010E000521109C801880F991F11
S1130BE0880F991F080F191FC0E008C0F801EC0F07
S1130BF0F11DE25EFF4F8491C1DFCF5FC530B0F3DA
S1130C0080E0BCDFDF5FDD15A0F2DF91CF911F91A3
S1130C100F91FF90EF90DF900895FF920F931F9331
S1130C20CF93DF93CDB7DEB768970FB6F894DEBFE6
S1130C300FBECDBFF62E97E0E4E9F0E08E010F5F22
S1130C401F4FD80101900D929A95E1F74AE0BE0139
S1130C506F5E7F4F90E0BED04AE0BE016B5E7F4F77
S1130C608F2D90E0B7D0BE016F5E7F4FC801A7D033
S1130C70F80101900020E9F731978EE290E091832A
S1130C808083BE016B5E7F4FC80199D0F80101904B
S1130C900020E9F7319780E290EB9183808383E42D
S1130CA090E09383828340E262E0C8016CDF68963F
S1130CB00FB6F894DEBF0FBECDBFDF91CF911F9169
S1130CC00F91FF900895FF920F931F93CF93DF939B
S1130CD0CDB7DEB768970FB6F894DEBF0FBECDBFB1
S1130CE0F62E97E0EBE9F0E08E010F5F1F4FD8017D
S1130CF001900D929A95E1F74AE0BE016F5E7F4F35
S1130D0090E068D04AE0BE016B5E7F4F8F2D90E08B
S1130D1061D0BE016F5E7F4FC80151D0F8010190D0
S1130D200020E9F731978EE290E091838083BE0141
S1130D306B5E7F4FC80143D0F80101900020E9F7B2
S1130D40319780E295E291838083128240E265E0EC
S1130D50C80119DF68960FB6F894DEBF0FBECDBF89
S1130D60DF91CF911F910F91FF9008954FEA60E0BA
S1130D7088E734DD089545EA60E088E72FDD0895CB
S1130D8044EA60E088E72ADD0895E7DD0895FBDDA5
S1130D900895F5DD0895AA1BBB1B51E107C0AA1FE6
S1130DA0BB1FA617B70710F0A61BB70B881F991F08
S1130DB05A95A9F780959095BC01CD010895FB0142
S1130DC0DC010D900020E9F7119701900D920020AD
S1130DD0E1F70895BB274A3031F4992322F4BDE2A8
S1130DE0909581959F4F01C0BB27FB015527AA27EA
S1130DF0880F991FAA1FA41710F0A41B83955051A4
S1130E00B9F7A05DAA3308F0A95DA193009779F71B
S1130E10B111B1931192CB0100C0DC01FC01672F29
S1130E2071917723E1F7329704C07C916D937083BD
S1110E306291AE17BF07C8F30895F894FFCF80
S1130E3E0105284D4541535552494E47004D4541F4
S1130E4E535552494E472E2020004D45415355527D
S1130E5E494E472E2E20004D4541535552494E477B
S1130E6E2E2E2E0054454D503A200048554D3A2012
S1050E7E20004E
S9030000FC
