:100000000EC01DC01CC01BC01AC019C018C017C02C
:1000100016C015C081C013C012C011C094C01124F5
:100020001FBECFE5D2E0DEBFCDBF20E0A0E6B0E04E
:1000300001C01D92A836B207E1F719D132C1E0CF55
:100040008AB58E7F8ABD8AB582608ABD83B7877F75
:1000500083BF87E289BD81E083BF12BE89B780611B
:1000600089BF089587B38E7F87BB87B38B7F87BB9C
:1000700088B38E7F88BB88B38B7F88BB88E68DB9B9
:10008000089587B38E7F87BB87B38B7F87BB88B389
:100090008E7F88BB88B38B7F88BB87B3816087BB2B
:1000A00088B38E7F88BB8DE08A95F1F7000087B317
:1000B000846087BB8DE08A95F1F7000088B381608A
:1000C00088BBE0916100F0E0EB59FF4F80818FB970
:1000D000809161008F5F8093610080EC8EB981E038
:1000E000809363000895ACDFBDDF789410926300C5
:1000F00087B3806187BB88B38F7E88BB089590915A
:1001000063009111FCCF10926100E5E6F0E080837E
:1001100061834283B6DF08951F920F920FB60F924C
:1001200011248F9388B7806188BF809163008823F2
:1001300019F08DB181608DB912BE8F910F900FBEF5
:100140000F901F9018951F920F920FB60F921124C7
:100150008F93EF93FF938EB180936400809164003E
:1001600086FF02C080E48EB980916400882314F475
:1001700080E88EB980916300813051F030F0833097
:1001800009F44FC0843091F068C01092630067C0DA
:100190008EB1807F8E608EB987B38E7F87BB88B328
:1001A0008E7F88BB84E08093630059C0789935C006
:1001B000809161008330C0F4E0916100F0E0EB5980
:1001C000FF4F80818FB9809161008F5F80936100C4
:1001D00088B3816088BB87B3816087BB80EC8EB9B0
:1001E00081E0809363003BC088B38E7F88BB87B378
:1001F000816087BB87B38B7F87BB88B38B7F88BBCE
:100200008DE08A95F1F7000087B38E7F87BB88B3B6
:100210008E7F88BB1092630022C083E080936300CE
:100220001EC081E08093600088B38E7F88BB87B357
:10023000816087BB87B38B7F87BB88B38B7F88BB8D
:100240008DE08A95F1F7000087B38E7F87BB88B376
:100250008E7F88BB1092630002C010926300FF91F2
:10026000EF918F910F900FBE0F901F9018953BDF6D
:100270008091620081110BC04FEA60E088E73FDFA8
:1002800044EA60E088E73BDF81E080936200809190
:100290006000882369F31092600088B3806188BB96
:0602A000E7CFF894FFCF48
:00000001FF
