S01700004763634170706C69636174696F6E312E737265635B
S11300000EC028C027C026C025C024C023C022C0DB
S113001021C020C027C11EC01DC01CC06FC0112438
S11300201FBECFE5D2E0DEBFCDBF10E0A0E6B0E05A
S1130030E0E4F3E002C005900D92A036B107D9F7D1
S113004020E0A0E6B0E001C01D92AD36B207E1F7B2
S113005020D174C1D5CF1092630087B38E7F87BB44
S113006087B38B7F87BB88B38E7F88BB88B38B7F36
S113007088BB88E68DB9089587B38E7F87BB87B325
S11300808B7F87BB88B38E7F88BB88B38B7F88BB0D
S113009087B3816087BB88B38E7F88BB8DE08A95E8
S11300A0F1F7000087B3846087BB8DE08A95F1F790
S11300B0000088B3816088BBE0916200F0E0EA59F7
S11300C0FF4F80818FB9809162008F5F80936200BF
S11300D080EC8EB981E08093630008959091630071
S11300E09111FCCF1092620093E090936000E6E6D9
S11300F0F0E0808361834283BFDF08951F920F92F3
S11301000FB60F9211248F939F93EF93FF938EB1A9
S1130110809364008091640086FF02C080E48EB9FD
S113012080916400882314F480E88EB98091630080
S1130130813051F030F0833009F451C0843091F0B3
S11301406AC01092630069C08EB1807F8E608EB9E0
S113015087B38E7F87BB88B38E7F88BB84E0809310
S113016063005BC0789937C0909162008091600011
S11301709817C0F4E0916200F0E0EA59FF4F8081E3
S11301808FB9809162008F5F8093620088B3816031
S113019088BB87B3816087BB80EC8EB981E0809394
S11301A063003BC088B38E7F88BB87B3816087BB05
S11301B087B38B7F87BB88B38B7F88BB8DE08A95A1
S11301C0F1F7000087B38E7F87BB88B38E7F88BB2F
S11301D01092630022C083E0809363001EC081E01C
S11301E08093610088B38E7F88BB87B3816087BBAF
S11301F087B38B7F87BB88B38B7F88BB8DE08A9561
S1130200F1F7000087B38E7F87BB88B38E7F88BBEE
S11302101092630002C010926300FF91EF919F91CE
S11302208F910F900FBE0F901F9018958AB58E7FF7
S11302308ABD8AB582608ABD83B7877F83BF87E220
S113024089BD81E083BF12BE89B7806189BF0895EB
S1130250EDDF01DF789487B3806187BB88B38F7E3D
S113026088BB08951F920F920FB60F9211248F939B
S113027088B7806188BF80916300882319F08DB1AD
S113028081608DB912BE8F910F900FBE0F901F9099
S11302901895DEDF8DE08A95F1F700008DE08A95F0
S11302A0F1F700008DE08A95F1F700008DE08A9562
S11302B0F1F7000080916500811111C04FEA60E000
S11302C088E70CDF45EA60E088E708DF80E011D0CA
S11302D044EA60E088E702DF81E080936500809172
S11302E06100882339F31092610088B3806188BB70
S11302F0E1CFCF93DF93D0E01CC04D2F4F70406B04
S113030060E088E7EBDE42E060E088E7E7DE40E1BA
S113031060E088E7E3DEC0E005C04FEF60E488E713
S1130320DDDECF5FCC23C9F38DE08A95F1F70000C1
S1130330DF5FD83010F3DF91CF910895F894FFCFA9
S9030000FC
