:10000000A2C0BCC0BBC0BAC0B9C0B8C0B7C0B6C03F
:10001000B5C0B4C0BBC1B2C0B1C0B0C003C1000064
:1000200000000000005F00000007000700147F14BC
:100030007F14242A7F2A122313086462364955222A
:10004000500005030000001C2241000041221C005A
:1000500014083E081408083E080800503000000844
:1000600008080808006060000020100804023E51E3
:1000700049453E00427F4000426151494621414589
:100080004B311814127F1027454545393C4A4949E0
:100090003001710905033649494936064949291E87
:1000A00000363600000056360000081422410014C5
:1000B0001414141400412214080201510906324993
:1000C00079413E7E1111117E7F494949363E4141B9
:1000D00041227F4141221C7F494949417F09090949
:1000E000013E4149497A7F0808087F00417F41006D
:1000F0002040413F017F081422417F404040407F23
:10010000020C027F7F0408107F3E4141413E7F097F
:100110000909063E4151215E7F0919294646494990
:10012000493101017F01013F4040403F1F204020F5
:100130001F3F4038403F63140814630708700807E6
:1001400061514945430011241FBECFE5D2E0DEBF17
:10015000CDBF10E0A0E6B0E0E2E5F5E002C005901A
:100160000D92A437B107D9F720E0A4E7B0E001C0B1
:100170001D92A138B207E1F720D1E9C141CF109219
:10018000770087B38E7F87BB87B38B7F87BB88B3AE
:100190008E7F88BB88B38B7F88BB88E68DB9089536
:1001A00087B38E7F87BB87B38B7F87BB88B38E7FF8
:1001B00088BB88B38B7F88BB87B3816087BB88B3DC
:1001C0008E7F88BB8DE08A95F1F7000087B384604D
:1001D00087BB8DE08A95F1F7000088B3816088BB0A
:1001E000E0917600F0E0E658FF4F80818FB9809172
:1001F00076008F5F8093760080EC8EB981E08093EB
:1002000077000895909177009111FCCF10927600BD
:1002100093E090937400EAE7F0E080836183428387
:10022000BFDF08951F920F920FB60F9211248F9384
:100230009F93EF93FF938EB1809378008091780025
:1002400086FF02C080E48EB980917800882314F480
:1002500080E88EB980917700813051F030F08330A2
:1002600009F451C0843091F06AC01092770069C0DF
:100270008EB1807F8E608EB987B38E7F87BB88B347
:100280008E7F88BB84E0809377005BC0789937C00D
:1002900090917600809174009817C0F4E0917600F8
:1002A000F0E0E658FF4F80818FB9809176008F5F34
:1002B0008093760088B3816088BB87B3816087BBF9
:1002C00080EC8EB981E0809377003BC088B38E7F4D
:1002D00088BB87B3816087BB87B38B7F87BB88B3BD
:1002E0008B7F88BB8DE08A95F1F7000087B38E7F06
:1002F00087BB88B38E7F88BB1092770022C083E0D3
:10030000809377001EC081E08093750088B38E7F54
:1003100088BB87B3816087BB87B38B7F87BB88B37C
:100320008B7F88BB8DE08A95F1F7000087B38E7FC5
:1003300087BB88B38E7F88BB1092770002C0109273
:100340007700FF91EF919F918F910F900FBE0F90CB
:100350001F9018958AB58E7F8ABD8AB582608ABD46
:1003600083B7877F83BF87E289BD81E083BF12BEE9
:1003700089B7806189BF0895EDDF01DF789487B385
:10038000806187BB88B38F7E88BB08951F920F92D0
:100390000FB60F9211248F9388B7806188BF809128
:1003A0007700882319F08DB181608DB912BE8F91CD
:1003B0000F900FBE0F901F901895DEDF8DE08A958D
:1003C000F1F700008DE08A95F1F700008DE08A9545
:1003D000F1F700008DE08A95F1F700008091790037
:1003E00081111BC04FEA60E088E70CDF45EA60E05E
:1003F00088E708DF80E037D040E262E080E690E006
:100400005CD040E265E08AE690E057D044EA60E0E4
:1004100088E7F8DE81E08093790080917500882379
:10042000E9F21092750088B3806188BBD7CF88301D
:1004300030F4482F4F70406B60E088E7E3DE0895AA
:10044000CF93882374F0C2E0C80F4C2F4F7060E048
:1004500088E7D8DE4C2F42954F70406160E088E716
:10046000D1DECF910895CF93DF93D0E01CC04D2F04
:100470004F70406B60E088E7C5DE42E060E088E7EF
:10048000C1DE40E160E088E7BDDEC0E005C040E0DD
:1004900060E488E7B7DECF5FCC23CCF78DE08A95A8
:1004A000F1F70000DF5FD83010F3DF91CF910895AE
:1004B000482F60E488E7A6DE0895DF92EF92FF926E
:1004C0000F931F93CF93DF937C01862FC42FF701E7
:1004D00001900020E9F73197DE2EDE18A8DF8C2F7F
:1004E000AFDFD0E02AC0F701ED0FF11D0081003B26
:1004F00059F486E0DDDF89E0DBDF89E0D9DF86E0E3
:10050000D7DF80E0D5DF18C010E000521109C80124
:10051000880F991F880F991F080F191FC0E008C086
:10052000F801EC0FF11DE25EFF4F8491C1DFCF5F58
:10053000C530B0F380E0BCDFDF5FDD15A0F2DF91F6
:10054000CF911F910F91FF90EF90DF900895F89455
:02055000FFCFDB
:1005520054454D503A2030B0430048554D3A202082
:040562003730250009
:00000001FF
