:100000000EC01DC01CC01BC01AC019C018C017C02C
:1000100016C015C011C113C012C011C05FC0112499
:100020001FBECFE5D2E0DEBFCDBF20E0A0E6B0E04E
:1000300001C01D92A836B207E1F715D12EC1E0CF5D
:100040001092620087B38E7F87BB87B38B7F87BB9D
:1000500088B38E7F88BB88B38B7F88BB88E68DB9D9
:10006000089587B38E7F87BB87B38B7F87BB88B3A9
:100070008E7F88BB88B38B7F88BB87B3816087BB4B
:1000800088B38E7F88BB00C000C0000087B3846047
:1000900087BB00C000C0000088B3816088BBE091CE
:1000A0006100F0E0EB59FF4F80818FB980916100D2
:1000B0008F5F8093610080EC8EB981E08093620055
:1000C0000895909162009111FCCF10926100E5E6D5
:1000D000F0E0808361834283C4DF08951F920F9212
:1000E0000FB60F9211248F93EF93FF938EB18093ED
:1000F00063008091630086FF02C080E48EB9809126
:100100006300882314F480E88EB980916200813006
:1001100051F030F0833009F44EC0843091F066C065
:100120001092620065C08EB1807F8E608EB987B3F9
:100130008E7F87BB88B38E7F88BB84E0809362000C
:1001400057C0789934C0809161008330C0F4E09149
:100150006100F0E0EB59FF4F80818FB98091610021
:100160008F5F8093610088B3816088BB87B38160B3
:1001700087BB80EC8EB981E08093620039C088B380
:100180008E7F88BB87B3816087BB87B38B7F87BB3C
:1001900088B38B7F88BB00C000C0000087B38E7F10
:1001A00087BB88B38E7F88BB1092620021C083E03A
:1001B000809362001DC081E08093600088B38E7FD1
:1001C00088BB87B3816087BB87B38B7F87BB88B3CE
:1001D0008B7F88BB00C000C0000087B38E7F87BBC9
:1001E00088B38E7F88BB1092620002C010926200BA
:1001F000FF91EF918F910F900FBE0F901F90189568
:100200008AB58E7F8ABD8AB582608ABD83B7877FB3
:1002100083BF87E289BD81E083BF12BE89B7806159
:1002200089BF0895EDDF0CDF789487B3806187BBC9
:1002300088B38F7E88BB08951F920F920FB60F92DE
:1002400011248F9388B7806188BF809162008823D2
:1002500019F08DB181608DB912BE8F910F900FBED4
:100260000F901F901895DEDF8091640081110BC004
:100270004FEA60E088E725DF44EA60E088E721DFB5
:1002800081E08093640080916000882369F310927C
:0E029000600088B3806188BBE7CFF894FFCF91
:00000001FF
