:10000000A2C0BCC0BBC0BAC0B9C0B8C0B7C0B6C03F
:10001000B5C0B4C034C4B2C0B1C0B0C0D9C2000011
:1000200000000000005F00000007000700147F14BC
:100030007F14242A7F2A122313086462364955222A
:10004000500005030000001C2241000041221C005A
:1000500014083E081408083E080800503000000844
:1000600008080808006060000020100804023E51E3
:1000700049453E00427F4000426151494621414589
:100080004B311814127F1027454545393C4A4949E0
:100090003001710905033649494936064949291E87
:1000A00000363600000056360000081422410014C5
:1000B0001414141400412214080201510906324993
:1000C00079413E7E1111117E7F494949363E4141B9
:1000D00041227F4141221C7F494949417F09090949
:1000E000013E4149497A7F0808087F00417F41006D
:1000F0002040413F017F081422417F404040407F23
:10010000020C027F7F0408107F3E4141413E7F097F
:100110000909063E4151215E7F0919294646494990
:10012000493101017F01013F4040403F1F204020F5
:100130001F3F4038403F63140814630708700807E6
:1001400061514945430011241FBECFE5D2E0DEBF17
:10015000CDBF10E0A0E6B0E0E6ECFAE002C005900A
:100160000D92A037B107D9F720E0A0E7B0E001C0B9
:100170001D92AC38B207E1F799D3A3C441CF60E038
:1001800083E08ED161E083E06CD160E084E088D1CF
:1001900060E084E066D1089585B3877F85BB8BB727
:1001A0008F7D8BBF089580E090E1ACD160E083E06B
:1001B00058D1B7D1B8D18231E8F361E083E070D192
:1001C00060E083E04ED188E090E09CD1AAD1089510
:1001D00083E085D18111FCCFA4D183E080D1882335
:1001E000E1F3A1D18B548031C0F49BD18091730095
:1001F0008F5F8093730083E072D18111FCCF93D124
:100200008B54803130F4809173008F5F8093730042
:10021000089582E080937200089582E080937200D6
:1002200008950F931F9361C0809160008150809367
:10023000600083E054D18823E1F373D183E04FD190
:100240008111FCCF70D190916000983058F18D32BF
:1002500008F44BC08091600090E0089741E050E0C6
:1002600060E070E08A019B0104C0000F111F221F93
:10027000331F8A95D2F7D901C80140917800509177
:10028000790060917A0070917B00842B952BA62BCE
:10029000B72B8093780090937900A0937A00B09365
:1002A0007B0023C08D3208F12091600081E090E056
:1002B00002C0880F991F2A95E2F74091740050916F
:1002C00075006091760070917700092E000CAA0BE2
:1002D000BB0B842B952BA62BB72B8093740090938C
:1002E0007500A0937600B093770080916000811133
:1002F0009BCF1F910F91089580917100823099F1E9
:1003000028F4882359F0813009F10895843009F4E4
:1003100049C0D8F1853009F4A1C0089510927D003C
:1003200010927C0010927F0010927E001092780054
:100330001092790010927A0010927B001092700057
:100340001EDFD9D081E08093710008952CDF809169
:100350007200882321F085E080937100089582E087
:1003600080937100089534DF80917200882321F01A
:1003700085E080937100089580917300823009F0C8
:100380006FC083E08093710008954BDF809172000D
:10039000882321F085E080937100089584E08093A4
:1003A000710008958091780090917900A0917A0071
:1003B000B0917B0080937E008091780090917900CD
:1003C000A0917A00B0917B00892F9A2FAB2FBB2789
:1003D00080937F008091780090917900A0917A00BD
:1003E000B0917B00CD01AA27BB2780937C00809130
:1003F000780090917900A0917A00B0917B008B2FCA
:100400009927AA27BB2780937D0020917E008091A9
:100410007F0090E0820F911D20917C00820F911D42
:1004200020917D00820F911D9927092E000CAA0BA7
:10043000BB0B4091740050917500609176007091F3
:10044000770084179507A607B70719F481E0809312
:100450007000A2DE54D01092710008959DDE4FD03E
:100460000895613069F448B321E030E0B90102C079
:10047000660F771F8A95E2F7CB01842B88BB08951E
:1004800061110DC048B321E030E0B90102C0660F30
:10049000771F8A95E2F7CB018095842388BB089566
:1004A000613071F447B321E030E0B90102C0660F5A
:1004B000771F8A95E2F7CB018095842387BB089547
:1004C00061110CC047B321E030E0B90102C0660FF2
:1004D000771F8A95E2F7CB01842B87BB089546B33B
:1004E00021E030E0B90102C0660F771F8A95E2F77C
:1004F000CB018423089584E080BF1FBC089510BE03
:100500001FBC08958830910521F08115904121F09C
:1005100006C084E080BF08958EE080BF089510BEBD
:1005200008951FBC08958FB508951092830087B376
:100530008E7F87BB87B38B7F87BB88B38E7F88BB5B
:1005400088B38B7F88BB88E68DB9089587B38E7F8B
:1005500087BB87B38B7F87BB88B38E7F88BB88B30D
:100560008B7F88BB87B3816087BB88B38E7F88BB56
:100570008DE08A95F1F7000087B3846087BB8DE03A
:100580008A95F1F7000088B3816088BBE091820012
:10059000F0E0EB57FF4F80818FB9809182008F5F31
:1005A0008093820080EC8EB981E08093830008956F
:1005B000909183009111FCCF1092820093E0909370
:1005C0008000E5E8F0E0808361834283BFDF089527
:1005D0001F920F920FB60F9211248F939F93EF9358
:1005E000FF938EB1809384008091840086FF02C0C7
:1005F00080E48EB980918400882314F480E88EB959
:1006000080918300813051F030F0833009F451C083
:10061000843091F06AC01092830069C08EB1807FEF
:100620008E608EB987B38E7F87BB88B38E7F88BB81
:1006300084E0809383005BC0789937C090918200FA
:10064000809180009817C0F4E0918200F0E0EB57B1
:10065000FF4F80818FB9809182008F5F80938200ED
:1006600088B3816088BB87B3816087BB80EC8EB91B
:1006700081E0809383003BC088B38E7F88BB87B3C3
:10068000816087BB87B38B7F87BB88B38B7F88BB39
:100690008DE08A95F1F7000087B38E7F87BB88B322
:1006A0008E7F88BB1092830022C083E080938300FA
:1006B0001EC081E08093810088B38E7F88BB87B3A2
:1006C000816087BB87B38B7F87BB88B38B7F88BBF9
:1006D0008DE08A95F1F7000087B38E7F87BB88B3E2
:1006E0008E7F88BB1092830002C010928300FF911E
:1006F000EF919F918F910F900FBE0F901F901895C3
:100700000F931F93CF93DF93CDB7DEB768970FB6E4
:10071000F894DEBF0FBECDBF87E0E1E6F0E08E01CA
:100720000F5F1F4FD80101900D928A95E1F78091DC
:100730007F004AE0BE016F5E7F4F90E08FD18091D5
:100740007E004AE0BE016B5E7F4F90E087D1BE0124
:100750006F5E7F4FC80177D1F80101900020E9F763
:1007600031978EE290E091838083BE016B5E7F4F74
:10077000C80169D1F80101900020E9F7319780E2C2
:1007800090EB9183808383E490E09383828340E2C3
:1007900062E0C8010ED168960FB6F894DEBF0FBEB6
:1007A000CDBFDF91CF911F910F9108950F931F93AC
:1007B000CF93DF93CDB7DEB768970FB6F894DEBF5F
:1007C0000FBECDBF87E0E8E6F0E08E010F5F1F4F60
:1007D000D80101900D928A95E1F780917D004AE061
:1007E000BE016F5E7F4F90E039D180917C004AE07E
:1007F000BE016B5E7F4F90E031D1BE016F5E7F4FD7
:10080000C80121D1F80101900020E9F731978EE26B
:1008100090E091838083BE016B5E7F4FC80113D14E
:10082000F80101900020E9F7319780E295E2918389
:100830008083128240E265E0C801BBD068960FB6A3
:10084000F894DEBF0FBECDBFDF91CF911F910F9106
:1008500008958AB58E7F8ABD8AB582608ABD83B7C6
:10086000877F83BF87E289BD81E083BF12BE89B7DE
:10087000806189BF0895EDDF58DE789408951F9256
:100880000F920FB60F9211248F9388B7806188BFA3
:1008900080918300882319F08DB181608DB912BEDB
:1008A0008F910F900FBE0F901F9018958DE08A9535
:1008B000F1F700008DE08A95F1F700008DE08A9550
:1008C000F1F700008DE08A95F1F7000010E0D0E02C
:1008D000C1E0D11107C010DD80917000882311F0B4
:1008E000D1E0C0E0C11118C088B3806188BB11118C
:1008F00002C0C1DF11E04FEA60E088E759DE45EA57
:1009000060E088E755DE80E02AD0FADE4FDF44EA77
:1009100060E088E74DDEC1E0809181008823C9F264
:1009200010928100D6CF883030F4482F4F70406B42
:1009300060E088E73DDE0895CF93882374F0C2E03D
:10094000C80F4C2F4F7060E088E732DE4C2F429585
:100950004F70406160E088E72BDECF910895CF9320
:10096000DF93D0E01CC04D2F4F70406B60E088E7F4
:100970001FDE42E060E088E71BDE40E160E088E7E0
:1009800017DEC0E005C040E060E488E711DECF5F1D
:10099000CC23CCF78DE08A95F1F70000DF5FD830EB
:1009A00010F3DF91CF910895482F60E488E700DECF
:1009B0000895DF92EF92FF920F931F93CF93DF93EF
:1009C0007C01862FC42FF70101900020E9F73197B1
:1009D000DE2EDE18A8DF8C2FAFDFD0E02AC0F701B3
:1009E000ED0FF11D0081003B59F486E0DDDF89E069
:1009F000DBDF89E0D9DF86E0D7DF80E0D5DF18C014
:100A000010E000521109C801880F991F880F991F23
:100A1000080F191FC0E008C0F801EC0FF11DE25EDD
:100A2000FF4F8491C1DFCF5FC530B0F380E0BCDF02
:100A3000DF5FDD15A0F2DF91CF911F910F91FF9045
:100A4000EF90DF900895FB01DC010D900020E9F7A5
:100A5000119701900D920020E1F70895BB274A30CD
:100A600031F4992322F4BDE2909581959F4F01C006
:100A7000BB27FB015527AA27880F991FAA1FA41778
:100A800010F0A41B83955051B9F7A05DAA3308F06C
:100A9000A95DA193009779F7B111B1931192CB01A0
:100AA00000C0DC01FC01672F71917723E1F73297D9
:100AB00004C07C916D9370836291AE17BF07C8F339
:060AC0000895F894FFCF39
:100AC6002854454D503A200048554D3A2020000004
:00000001FF
