S01700004763634170706C69636174696F6E312E737265635B
S11300002EC048C057C046C045C044C043C042C0CB
S113001041C040C078C13EC03DC03CC0D5C0FFFF18
S1130020FF7F7FF71F0F0F0F0F0F1F2FF77F80C06A
S1130030E0F8F8F8F8FEFEFEFE7E7E7C780080C0D4
S1130040E0F8F8F8F8FEFEFEFE7E7E7C780080C0C4
S1130050E0F8F8F8F8FEFEFEFE7E7E7C78001124BF
S11300601FBECFE5D2E0DEBFCDBF10E0A0E6B0E01A
S1130070E4E9F4E002C005900D92A236B107D9F785
S113008020E0A2E6B0E001C01D92A037B207E1F77C
S113009051D1FEC1B5CF87B3886087BB88B3886070
S11300A088BB08958BB780628BBF85B3886085BB9E
S11300B0789408951F920F920FB60F9211248F9384
S11300C088B3806188BB8AB780628ABF8F910F90A2
S11300D00FBE0F901F90189584E080BF1FBC089539
S11300E08EE080BF88B3877F88BB1FBC8FB5823109
S11300F0E8F387B3877F87BB88B3877F88BB84E0B7
S113010080BF19C0B399FECFCDDF1FBC06C0B09B22
S113011004C081E08093620003C08FB58135B8F3D9
S11301201FBC06C0B09904C081E08093620003C084
S11301308FB58035B8F380916200882319F38091DC
S11301406200089587B38E7F87BB87B38B7F87BB9D
S113015088B38E7F88BB88B38B7F88BB87B381606D
S113016087BB88B38E7F88BB8DE08A95F1F700004A
S113017087B3846087BB8DE08A95F1F7000088B36C
S1130180816088BBE0916500F0E0E759FF4F808112
S11301908FB9809165008F5F8093650080EC8EB984
S11301A081E0809366000895909166009111FCCFE0
S11301B01092650093E090936300E9E6F0E0808399
S11301C061834283BFDF08951F920F920FB60F928F
S11301D011248F939F93EF93FF938EB180936700C5
S11301E08091670086FF02C080E48EB98091670029
S11301F0882314F480E88EB980916600813051F030
S113020030F0833009F451C0843091F06AC0109208
S1130210660069C08EB1807F8E608EB987B38E7F91
S113022087BB88B38E7F88BB84E0809366005BC005
S1130230789937C090916500809163009817C0F455
S1130240E0916500F0E0E759FF4F80818FB980911C
S113025065008F5F8093650088B3816088BB87B336
S1130260816087BB80EC8EB981E0809366003BC0DF
S113027088B38E7F88BB87B3816087BB87B38B7F4E
S113028087BB88B38B7F88BB8DE08A95F1F700002C
S113029087B38E7F87BB88B38E7F88BB109266003E
S11302A022C083E0809366001EC081E080936400D6
S11302B088B38E7F88BB87B3816087BB87B38B7F0E
S11302C087BB88B38B7F88BB8DE08A95F1F70000EC
S11302D087B38E7F87BB88B38E7F88BB10926600FE
S11302E002C010926600FF91EF919F918F910F9041
S11302F00FBE0F901F90189589B78F7E89BF83B763
S1130300887F83BF08951F920F920FB60F92112416
S11303108F9388B7806188BF80916600882319F025
S11303208DB181608DB912BE8F910F900FBE0F9069
S11303301F90189587B3806187BB87B3886087BB9C
S113034088B38F7E88BB88B3877F88BB8DE08A950E
S1130350F1F700008DE08A95F1F700008DE08A95B1
S1130360F1F700008DE08A95F1F7000080916000BC
S1130370811116C04FEA60E088E716DF45EA60E0C5
S113038088E712DF80E03CD040E262E080E062D0A7
S113039044EA60E088E708DFAFDF81E08093600033
S11303A080916800811106C076DE96DE99DE81E0D8
S11303B080936800809164008823C1F210926400E5
S11303C088B3806188BBD2CF883030F4482F4F7017
S11303D0406B60E088E7E8DE0895CF93882374F0EB
S11303E0C2E0C80F4C2F4F7060E088E7DDDE4C2F71
S11303F042954F70406160E088E7D6DECF91089562
S1130400CF93DF93D0E01CC04D2F4F70406B60E062
S113041088E7CADE42E060E088E7C6DE40E160E0EB
S113042088E7C2DEC0E005C040E060E488E7BCDEE7
S1130430CF5FCC23CCF78DE08A95F1F70000DF5F26
S1130440D83010F3DF91CF910895482F60E488E706
S1130450ABDE0895CF93DF93D82F862FC42FB4DF5C
S11304608C2FBBDFC0E00FC0ED2FF0E0E295F295DA
S1130470F07FFE27E07FFE27EC0FF11DE25EFF4FC9
S11304808491E3DFCF5FC03178F3DF91CF9108959A
S1070490F894FFCF0A
S1050494010061
S9030000FC
